:020000040800F2
:100000001804002001010008630A0008C109000863
:10001000610A00086D0100084D0C00080000000096
:10002000000000000000000000000000B10B00080C
:100030006F01000800000000650A0008B30B00080B
:100040001B0100081B0100081B0100081B01000820
:100050001B0100081B0100081B0100081B01000810
:100060001B0100081B0100081B0100081B01000800
:100070001B0100081B0100081B0100081B010008F0
:100080001B0100081B0100081B0100081B010008E0
:100090001B0100081B0100081B0100081B010008D0
:1000A0001B0100081B0100081B0100081B010008C0
:1000B0001B0100081B0100081B0100081B010008B0
:1000C0001B0100081B0100081B0100081B010008A0
:1000D0001B0100081B0100081B0100081B01000890
:1000E0001B0100081B0100081B010008DFF80CD0F1
:1000F00000F02AF800480047A50E00081804002068
:100100000648804706480047FEE7FEE7FEE7FEE7B1
:10011000FEE7FEE7FEE7FEE7FEE7FEE7050C000868
:10012000ED000008D2B201E000F8012B491EFBD21D
:1001300070470022F6E710B513460A4604461946F2
:10014000FFF7F0FF204610BD064C074D06E0E068C3
:1001500040F0010394E8070098471034AC42F6D30E
:10016000FFF7C8FF2411000844110008FEE770479C
:100170000B4800B5816985B041F004018161806957
:10018000694600F0040004904FF480700090012054
:10019000019003200390034800F018F805B000BD5B
:1001A000001002400008014070B5044600F008F954
:1001B0000546601C02D004480078044400F000F9B1
:1001C000401BA042FAD370BD040000202DE9F84F77
:1001D000DFF8B891002409F1040A0AF1040B234660
:1001E0000F270BF1040EC9E00125A5402A40AA42C1
:1001F0007DD1674ED1F804C0ACEB0608B44532D0CF
:1002000014DCBCF1030F3AD009DCBCF1000F2AD09A
:10021000BCF1010F1CD0BCF1020F31D11DE0BCF1CB
:10022000110F17D0BCF1120F2AD119E0B8F5881FB1
:1002300019D006DCB8F5803F15D0B8F5801F1FD166
:1002400011E0B8F5001F0ED0B8F5041F18D10AE070
:10025000CB6815E0CB681B1D12E0CB6808330FE0BC
:10026000CB680C330CE08B682BB1012B4FF00803EB
:1002700003D0456104E0042302E0056100E00023AF
:10028000FF2A01D8064601E000F104064FEA840582
:1002900001D9A5F12005D6F8008007FA05FC28EA67
:1002A0000C0803FA05F548EA0508C6F800804D6811
:1002B000ED0062D5374DAE6946F00106AE61AD691D
:1002C00024F0030605F001050095334D06EB050CFF
:1002D000DCF80850A607360F07FA06F825EA0805E5
:1002E000DFF8B880404503D14FF0000817E044E044
:1002F000DFF8AC80404502D14FF001080FE0DFF895
:10030000A480404502D14FF0020808E0DFF8988051
:10031000404502D14FF0030801E04FF0040808FA0D
:1003200006F848EA0508CCF808804D68D9F800605E
:10033000ED034D4601D5164300E096432E604D680F
:10034000DAF80060AD03554601D5164300E0964348
:100350002E604D68DBF80060ED025D4601D5164366
:1003600000E096432E604D68DEF80060AD027546F1
:1003700001D5164300E096432E60641C0D682A46A2
:10038000E5407FF431AFBDE8F88F00000004014084
:100390000000111000100240000001400008014060
:1003A000000C01400010014000140140806808402A
:1003B00000D0012070470AB1016170470904FBE7D2
:1003C00001488068704700000400002002488168EE
:1003D000027811448160704704000020074810B57E
:1003E000016841F010010160032000F067F800206F
:1003F00000F006F800F024F8002010BD00200240B4
:1004000070B50D4D04464FF47A712878B1FBF0F0C9
:100410000A490968B1FBF0F000F0BEFA48B9102CA7
:1004200007D200222146501E00F028F800206C6000
:1004300070BD012070BD00000400002010000020ED
:100440000C4808B5816941F001018161816901F0C1
:1004500001010091C16941F08051C161C06900F0A2
:10046000805000900448416821F0E06141F0007143
:10047000416008BD0010024000000140F0B40E4B86
:100480001B680C46C3F30223C3F10705042D00D9F2
:100490000425191D072901D2002300E0DB1E0126D7
:1004A00006FA05F1491E214099409E40761E1640ED
:1004B0003143F0BC00F0CBBB0CED00E0064900F08E
:1004C000070208684FF6FF03184040EA0220034A7B
:1004D00010430860704700000CED00E00000FA05D2
:1004E0002DE9F0470F46050061D0434E306800F01B
:1004F0000700B84209D2306820F007003843306066
:10050000306800F00700B84251D128683B4C8107A1
:1005100012D5400703D5606840F4E0606060287839
:10052000000703D5606840F4605060606068A968A7
:1005300020F0F000084360602878C00728D0686881
:10054000012810D02168022810D0890700292EDA4E
:10055000616821F0030101436160FFF731FF8046CC
:1005600041F288390DE021688903EFE78901EDE761
:10057000FFF726FFA0EB0801494502D90320BDE89B
:10058000F0876068696800F00C00B0EB810FEFD174
:10059000306800F00700B8420BD9306820F007003F
:1005A00038433060306800F00700B84201D00120C5
:1005B000E5E72878400705D56068E96820F4E06041
:1005C000084360602878000706D56068296920F430
:1005D000605040EAC100606000F018F86168084AA5
:1005E000C1F30311515CC840064908600648006821
:1005F000FFF706FF0020C2E7002002400010024083
:1006000012110008100000200800002012A185B07F
:100610000FC98DE80F0014A0144A006804905168B7
:10062000134801F00C03042B10D0082B0ED1C1F39A
:100630008343C9031DF803000AD5516804AAC1F316
:100640004041515C0A4A5043B0FBF1F005B070479D
:1006500008494843FAE700000203040506070809B1
:100660000A0B0C0D0E0F10100102000000100240CA
:1006700000127A0000093D002DE9F84F040070D007
:100680002078C04DC00749D06868C0F381000128B8
:1006900007D06868C0F38100022809D16868C003E8
:1006A00006D52868800339D560680028E7D035E092
:1006B0006068B0F5803F0BD010B1B0F5A02F11D01D
:1006C000286820F480302860286820F4802002E028
:1006D000286840F480302860606890B1FFF770FEB1
:1006E00006460AE0286840F480202860F0E700BF52
:1006F000FFF766FE801B642873D828688003F7D54F
:100700000CE0FFF75DFE064605E000BFFFF758FE70
:10071000801B6428F0D828688003F7D420789A4E8C
:1007200080074FF001094FF0000839D5686810F0D4
:100730000C0F07D06868C0F38100022809D16868EF
:10074000C00306D42868800714D52069012808D181
:1007500010E02069B0B1C6F80090FFF731FE0746FF
:1007600005E00AE1FFF72CFEC01B0228C4D8286868
:100770008007F7D52868616920F0F80040EAC100D9
:1007800028600DE0C6F80080FFF71AFE074604E077
:10079000FFF716FEC01B022823D828688007F7D46D
:1007A000207800072CD57948A169D9B1C0F800900C
:1007B000FFF706FE074604E0FFF702FEC01B022813
:1007C0000FD8686A8007F7D571484FF4FA5100686E
:1007D000B0FBF1F0009000BF0098411E0091FAD2EA
:1007E0000EE080E0C0F80080FFF7EAFD074604E075
:1007F000FFF7E6FDC01B022875D8686A8007F7D4AA
:100800002078400760D5E8690027C00008D4E8696F
:1008100040F08050E861E869012700F080500090C6
:100820005C480168C90513D40168834641F48071AE
:100830000160FFF7C5FD824606E000BFFFF7C0FD7F
:10084000A0EB0A0064284ED8DBF80000C005F5D5FF
:10085000E06801280AD008B1052813D0286A20F0E2
:1008600001002862286A20F0040002E0286A40F0B3
:1008700001002862E06841F2883B98B1FFF7A0FDD3
:1008800082460BE0286A40F004002862EEE700BFD1
:10089000FFF796FDA0EB0A0159455AD8286A800750
:1008A000F6D50CE0FFF78CFD824605E0FFF788FDEA
:1008B000A0EB0A0159454CD8286A8007F6D41FB12D
:1008C000E86920F08050E861E06988B36968C1F3A5
:1008D0008101022944D00228C6F8608004D0FFF7C5
:1008E0006FFD044638E034E0FFF76AFD074604E098
:1008F000FFF766FDC01B02282BD828688001F7D4BB
:10090000206AB0F5803F05D16868A16820F4003006
:1009100008436860D4E908010843696821F4741148
:1009200008436860C6F86090FFF74AFD044606E099
:1009300025E000BFFFF744FD001B022809D8286806
:100940008001F7D51BE000BFFFF73AFD001B02282E
:1009500002D90320BDE8F88F28688001F4D40EE0A6
:100960000128F7D06868226A00F48031914204D1EE
:10097000616A00F47010884201D00120EAE700208B
:10098000E8E70000001002400000424280044242BA
:10099000100000200070004010B5401EB0F1807FB4
:1009A00001D3012010BD4FF0E02460610F216017DA
:1009B00000F04DF90020A06107202061002010BD4B
:1009C000FEE700002DE9F04385B0002421480094A3
:1009D000019402940394816941F02001816181694D
:1009E00001F020010491816941F004018161816974
:1009F00001F004010491816941F00801816180697D
:100A0000DFF8548000F0080004900022F0214046F6
:100A1000FFF7D1FCDFF8449040F28377002239469B
:100A20004846FFF7C8FCF02001250226CDE9000565
:100A3000CDE9024669464046FFF7C8FB009703969A
:100A4000CDE9015469464846FFF7C0FB05B0BDE853
:100A5000F08300000010024000080140000C01403B
:100A6000FEE77047704700002DE9F0410025174E62
:100A70002C464FF480774FF0010839463046FFF797
:100A800095FC0028F9D0322000F000F939463046B4
:100A9000FFF78CFC01280BD0C4F1070108FA01F024
:100AA0008543641CE4B2082CE7D32846BDE8F081F6
:100AB00039463046FFF77AFC0128F9D0C4F1070126
:100AC00008FA01F0C0B20543EBE70000000801405E
:100AD00070B51C4D04464FF4807631462846FFF72A
:100AE00065FC68BB31462846FFF760FC0028F9D05A
:100AF00031462846FFF75AFC0128F9D0FFF7B4FF2A
:100B0000A070FFF7B1FFE070FFF7AEFF2070FFF7B6
:100B1000ABFF6070FFF7A8FF2071FFF729FB0122F0
:100B200031462846FFF747FCA078E1786278084410
:100B30002178114408442179884201D1002070BDF8
:100B4000012070BD0008014010B5FFF711FB002225
:100B50004FF480710348FFF72EFCBDE810401420CD
:100B6000FFF722BB000801407FB5282000F08EF877
:100B70000E4D4FF48074002221462846FFF71BFCDF
:100B8000502000F083F8012221462846FFF713FC8D
:100B9000502000F07BF80020CDE9004003200390B6
:100BA00069462846FFF712FB7FBD000000080140A0
:100BB0007047FFF70BBC30B58FB028216846FFF7B0
:100BC000B8FA14210AA8FFF7B4FA01210804CDE904
:100BD00000100024029402250491CDE907504FF43F
:100BE000E01009906846FFF747FD0F20CDE90A05A0
:100BF0006802CDE90C4002210AA80E94FFF770FCB0
:100C00000FB030BD0D48016841F00101016041683D
:100C10000B4A1140416001680A4A114001600168B5
:100C200021F480210160416821F4FE0141604FF40C
:100C30001F0181600449C003086070470010024032
:100C40000000FFF8FFFFF6FE08ED00E0FEE70907F1
:100C5000090E002804DB00F1E02080F80014704742
:100C600000F00F0000F1E02080F8141D704702E052
:100C700008C8121F08C1002AFAD170477047002027
:100C800001E001C1121F002AFBD1704747E000BFFD
:100C900000BF00BF00BF00BF00BF00BF00BF00BF5C
:100CA00000BF00BF00BF00BF00BF00BF00BF00BF4C
:100CB00000BF00BF00BF00BF00BF00BF00BF00BF3C
:100CC00000BF00BF00BF00BF00BF00BF00BF00BF2C
:100CD00000BF00BF00BF00BF00BF00BF00BF00BF1C
:100CE00000BF00BF00BF00BF00BF00BF00BF00BF0C
:100CF00000BF00BF00BF00BF00BF00BF00BF00BFFC
:100D000000BF00BF00BF00BF00BF00BF00BF00BFEB
:100D100000BF00BF00BF00BF00BF00BF00BF401E3C
:100D2000C0B2B4D2704710B50446000900F09AF87A
:100D300000F008F8204600F095F8BDE8104000F0FB
:100D400001B8000004494FF480600860091D086084
:100D50000120FFF729BA0000100C014010B530B196
:100D6000012806D0022806D0032807D105E08022FA
:100D700004E0C02202E0942200E0D4225018C0B265
:100D8000FFF7D1FFBDE810400120FFF70DBA0000CA
:100D900070B5224800240121016002210160142065
:100DA000FFF702FA032000F05DF8FFF7CBFF0A20FF
:100DB000FFF7FAF9032000F055F8FFF7C3FF0A2008
:100DC000FFF7F2F9032000F04DF8FFF7BBFF0A2010
:100DD000FFF7EAF9022000F045F8FFF7B3FF0A2019
:100DE000FFF7E2F92820FFF79EFF0C20FFF79BFF9B
:100DF0000620FFF798FF4020FFF795FF084D285D7C
:100E000000F024F8641CE4B2402CF8D30120FFF772
:100E10008AFFBDE870400A20FFF7C6B9140C0140F4
:100E2000D21000082DE9F041074E01250446371D78
:100E300005E035602078FFF776FF3D60641C207880
:100E40000028F6D1BDE8F081100C014010B504492E
:100E500001240C60FFF767FF0148001D046010BD0E
:100E6000100C014070B50E4D044600F00102102137
:100E70002846FFF7A0FAC4F3400220212846FFF7D6
:100E80009AFAC4F3800240212846FFF794FAC4F38B
:100E9000C0022846BDE870408021FFF78CBA0000F0
:100EA000000801401CB5FFF799FAFFF784FEFFF731
:100EB00089FDFFF76DFF00210846FFF74FFF5BA09C
:100EC000FFF7B0FF12210020FFF748FFDF20FFF7F8
:100ED000BDFF59A0FFF7A6FF00210120FFF73EFF4D
:100EE00056A0FFF79FFF00210220FFF737FF59A010
:100EF000FFF798FF12210220FFF730FFDF20FFF7F6
:100F0000A5FF4DA0FFF78EFF00210320FFF726FF6E
:100F100054A0FFF787FF0F210220FFF71FFF574D57
:100F20000A242878B0FBF4F03030C0B2FFF78EFF0F
:100F30002878B0FBF4F104FB11003030FFF786FF96
:100F40000F210320FFF70AFF6878B0FBF4F0303080
:100F5000C0B2FFF77BFF6878B0FBF4F104FB11002F
:100F60003030FFF773FF464E4FF4007700223946CA
:100F70003046FFF720FA4FF4807800224146304691
:100F8000FFF719FA00224BE0FFF7DEFDFFF7ECFD5B
:100F90006846FFF79DFD48BB0F210020FFF7DEFEEE
:100FA0009DF80000B0FBF4F03030C0B2FFF74EFF08
:100FB0009DF80000B0FBF4F104FB11003030FFF7A6
:100FC00045FF0F210120FFF7C9FE9DF80200B0FB8D
:100FD000F4F03030C0B2FFF739FF9DF80200B0FBEB
:100FE000F4F104FB11003030FFF730FF9DF80000F2
:100FF0002978884209D3012239463046FFF7DBF9C8
:10100000012241463046FFF7D6F99DF80200697883
:101010008842B9D3012239463046FFF7CCF9012284
:1010200080213046FFF7C7F9AEE700004E4849453A
:101030005420444F3A00000043000000444F204138
:101040004D3A202020202020202020202020202554
:10105000000000004E2F646F206E67756F6E673A58
:1010600000000000446F20616D206E67756F6E6731
:101070003A20202020202025000000000000002031
:10108000000C0140000102050304010220030703D4
:1010900006060205030306060203030407030720EE
:1010A00020070706060303040006060503040101E2
:1010B00007202007000602050304000602030304BC
:1010C00020202020202000012005032020202000B7
:1010D0000102070F1F1F1F1F1F1F1F1F1F000000E0
:1010E00000001C1E1F1F1F1F1F1F00000000001FED
:1010F0001F1F1F1F1F1F1F1F1E1C1F1F1F1F1F1F04
:101100000F071F1F1F0000001F1F1F1F1F1F1F1F74
:101110001F1F00000000000000000102030406077A
:10112000080900004411000800000020140000001D
:101130006E0C000858110008140000200404000080
:101140007E0C000862620000010000001000000038
:08115000000000000024F4007F
:04000005080000ED02
:00000001FF
